{
  "_format": "hh-sol-artifact-1",
  "contractName": "NFTLoan",
  "sourceName": "contracts/merge.sol",
  "abi": [
    {
      "inputs": [
        {
          "internalType": "uint256",
          "name": "_loanAmount",
          "type": "uint256"
        },
        {
          "internalType": "uint256",
          "name": "_loanDuration",
          "type": "uint256"
        },
        {
          "internalType": "address",
          "name": "_nft",
          "type": "address"
        },
        {
          "internalType": "address",
          "name": "_borrower",
          "type": "address"
        },
        {
          "internalType": "uint256",
          "name": "_tokenId",
          "type": "uint256"
        }
      ],
      "stateMutability": "nonpayable",
      "type": "constructor"
    },
    {
      "inputs": [
        {
          "internalType": "uint256",
          "name": "_interestRate",
          "type": "uint256"
        }
      ],
      "name": "acceptOffer",
      "outputs": [],
      "stateMutability": "payable",
      "type": "function"
    },
    {
      "inputs": [
        {
          "internalType": "address",
          "name": "_approved",
          "type": "address"
        },
        {
          "internalType": "uint256",
          "name": "_tokenId",
          "type": "uint256"
        }
      ],
      "name": "approveTokenTransfer",
      "outputs": [],
      "stateMutability": "nonpayable",
      "type": "function"
    },
    {
      "inputs": [],
      "name": "borrower",
      "outputs": [
        {
          "internalType": "address",
          "name": "",
          "type": "address"
        }
      ],
      "stateMutability": "view",
      "type": "function"
    },
    {
      "inputs": [],
      "name": "calculateInterest",
      "outputs": [
        {
          "internalType": "uint256",
          "name": "",
          "type": "uint256"
        }
      ],
      "stateMutability": "view",
      "type": "function"
    },
    {
      "inputs": [],
      "name": "defaultLoan",
      "outputs": [],
      "stateMutability": "nonpayable",
      "type": "function"
    },
    {
      "inputs": [],
      "name": "instan",
      "outputs": [
        {
          "internalType": "contract ERC721Enumerable",
          "name": "",
          "type": "address"
        }
      ],
      "stateMutability": "view",
      "type": "function"
    },
    {
      "inputs": [],
      "name": "interestRate",
      "outputs": [
        {
          "internalType": "uint256",
          "name": "",
          "type": "uint256"
        }
      ],
      "stateMutability": "view",
      "type": "function"
    },
    {
      "inputs": [],
      "name": "lender",
      "outputs": [
        {
          "internalType": "address",
          "name": "",
          "type": "address"
        }
      ],
      "stateMutability": "view",
      "type": "function"
    },
    {
      "inputs": [],
      "name": "listNFT",
      "outputs": [],
      "stateMutability": "nonpayable",
      "type": "function"
    },
    {
      "inputs": [],
      "name": "loanAmount",
      "outputs": [
        {
          "internalType": "uint256",
          "name": "",
          "type": "uint256"
        }
      ],
      "stateMutability": "view",
      "type": "function"
    },
    {
      "inputs": [],
      "name": "loanDuration",
      "outputs": [
        {
          "internalType": "uint256",
          "name": "",
          "type": "uint256"
        }
      ],
      "stateMutability": "view",
      "type": "function"
    },
    {
      "inputs": [],
      "name": "loanStartDate",
      "outputs": [
        {
          "internalType": "uint256",
          "name": "",
          "type": "uint256"
        }
      ],
      "stateMutability": "view",
      "type": "function"
    },
    {
      "inputs": [],
      "name": "makeOffer",
      "outputs": [],
      "stateMutability": "payable",
      "type": "function"
    },
    {
      "inputs": [],
      "name": "nft",
      "outputs": [
        {
          "internalType": "contract IERC721",
          "name": "",
          "type": "address"
        }
      ],
      "stateMutability": "view",
      "type": "function"
    },
    {
      "inputs": [
        {
          "internalType": "address",
          "name": "",
          "type": "address"
        },
        {
          "internalType": "address",
          "name": "",
          "type": "address"
        },
        {
          "internalType": "uint256",
          "name": "",
          "type": "uint256"
        },
        {
          "internalType": "bytes",
          "name": "",
          "type": "bytes"
        }
      ],
      "name": "onERC721Received",
      "outputs": [
        {
          "internalType": "bytes4",
          "name": "",
          "type": "bytes4"
        }
      ],
      "stateMutability": "nonpayable",
      "type": "function"
    },
    {
      "inputs": [],
      "name": "owner",
      "outputs": [
        {
          "internalType": "address",
          "name": "",
          "type": "address"
        }
      ],
      "stateMutability": "view",
      "type": "function"
    },
    {
      "inputs": [],
      "name": "payLoan",
      "outputs": [],
      "stateMutability": "payable",
      "type": "function"
    },
    {
      "inputs": [],
      "name": "state",
      "outputs": [
        {
          "internalType": "enum NFTLoan.State",
          "name": "",
          "type": "uint8"
        }
      ],
      "stateMutability": "view",
      "type": "function"
    },
    {
      "inputs": [],
      "name": "tokenId",
      "outputs": [
        {
          "internalType": "uint256",
          "name": "",
          "type": "uint256"
        }
      ],
      "stateMutability": "view",
      "type": "function"
    },
    {
      "inputs": [],
      "name": "withdraw",
      "outputs": [],
      "stateMutability": "nonpayable",
      "type": "function"
    }
  ],
  "bytecode": "0x60806040523480156200001157600080fd5b5060405162001f4738038062001f47833981810160405281019062000037919062000297565b80600781905550336000806101000a81548173ffffffffffffffffffffffffffffffffffffffff021916908373ffffffffffffffffffffffffffffffffffffffff16021790555081600560006101000a81548173ffffffffffffffffffffffffffffffffffffffff021916908373ffffffffffffffffffffffffffffffffffffffff160217905550620000d3306007546200015b60201b60201c565b846001819055508360038190555082600960006101000a81548173ffffffffffffffffffffffffffffffffffffffff021916908373ffffffffffffffffffffffffffffffffffffffff1602179055506000600960146101000a81548160ff021916908360038111156200014b576200014a6200031f565b5b021790555050505050506200039d565b600960009054906101000a900473ffffffffffffffffffffffffffffffffffffffff1673ffffffffffffffffffffffffffffffffffffffff1663095ea7b383836040518363ffffffff1660e01b8152600401620001ba92919062000370565b600060405180830381600087803b158015620001d557600080fd5b505af1158015620001ea573d6000803e3d6000fd5b505050505050565b600080fd5b6000819050919050565b6200020c81620001f7565b81146200021857600080fd5b50565b6000815190506200022c8162000201565b92915050565b600073ffffffffffffffffffffffffffffffffffffffff82169050919050565b60006200025f8262000232565b9050919050565b620002718162000252565b81146200027d57600080fd5b50565b600081519050620002918162000266565b92915050565b600080600080600060a08688031215620002b657620002b5620001f2565b5b6000620002c6888289016200021b565b9550506020620002d9888289016200021b565b9450506040620002ec8882890162000280565b9350506060620002ff8882890162000280565b925050608062000312888289016200021b565b9150509295509295909350565b7f4e487b7100000000000000000000000000000000000000000000000000000000600052602160045260246000fd5b620003598162000252565b82525050565b6200036a81620001f7565b82525050565b60006040820190506200038760008301856200034e565b6200039660208301846200035f565b9392505050565b611b9a80620003ad6000396000f3fe60806040526004361061011f5760003560e01c80638da5cb5b116100a0578063c815729d11610064578063c815729d14610351578063d34a87821461036d578063e3a25c3214610384578063eb0c4955146103ad578063f5521bf1146103d85761011f565b80638da5cb5b1461028e5780639d585f7f146102b9578063a864bc73146102e4578063bcead63e146102fb578063c19d93fb146103265761011f565b806347ccca02116100e757806347ccca02146101d85780634e1b623e146102035780635a3c9b0e1461020d5780637c3a00fd146102385780637df1f1b9146102635761011f565b8063150b7a021461012457806317d70f7c14610161578063183b06681461018c5780633ccfd60b146101b7578063472eb03d146101ce575b600080fd5b34801561013057600080fd5b5061014b600480360381019061014691906111c8565b610403565b6040516101589190611286565b60405180910390f35b34801561016d57600080fd5b50610176610417565b60405161018391906112b0565b60405180910390f35b34801561019857600080fd5b506101a161041d565b6040516101ae91906112b0565b60405180910390f35b3480156101c357600080fd5b506101cc610423565b005b6101d661055d565b005b3480156101e457600080fd5b506101ed6107b5565b6040516101fa919061132a565b60405180910390f35b61020b6107db565b005b34801561021957600080fd5b506102226108d8565b60405161022f9190611366565b60405180910390f35b34801561024457600080fd5b5061024d6108fe565b60405161025a91906112b0565b60405180910390f35b34801561026f57600080fd5b50610278610904565b6040516102859190611390565b60405180910390f35b34801561029a57600080fd5b506102a361092a565b6040516102b09190611390565b60405180910390f35b3480156102c557600080fd5b506102ce61094e565b6040516102db91906112b0565b60405180910390f35b3480156102f057600080fd5b506102f9610954565b005b34801561030757600080fd5b50610310610afe565b60405161031d9190611390565b60405180910390f35b34801561033257600080fd5b5061033b610b24565b6040516103489190611422565b60405180910390f35b61036b6004803603810190610366919061143d565b610b37565b005b34801561037957600080fd5b50610382610da0565b005b34801561039057600080fd5b506103ab60048036038101906103a6919061146a565b610ef8565b005b3480156103b957600080fd5b506103c2610f8b565b6040516103cf91906112b0565b60405180910390f35b3480156103e457600080fd5b506103ed610fd4565b6040516103fa91906112b0565b60405180910390f35b600063150b7a0260e01b9050949350505050565b60075481565b60045481565b60008054906101000a900473ffffffffffffffffffffffffffffffffffffffff1673ffffffffffffffffffffffffffffffffffffffff163373ffffffffffffffffffffffffffffffffffffffff16146104b1576040517f08c379a00000000000000000000000000000000000000000000000000000000081526004016104a890611507565b60405180910390fd5b600047116104f4576040517f08c379a00000000000000000000000000000000000000000000000000000000081526004016104eb90611573565b60405180910390fd5b60008054906101000a900473ffffffffffffffffffffffffffffffffffffffff1673ffffffffffffffffffffffffffffffffffffffff166108fc479081150290604051600060405180830381858888f1935050505015801561055a573d6000803e3d6000fd5b50565b60016003811115610571576105706113ab565b5b600960149054906101000a900460ff166003811115610593576105926113ab565b5b146105d3576040517f08c379a00000000000000000000000000000000000000000000000000000000081526004016105ca906115df565b60405180910390fd5b600560009054906101000a900473ffffffffffffffffffffffffffffffffffffffff1673ffffffffffffffffffffffffffffffffffffffff163373ffffffffffffffffffffffffffffffffffffffff1614610663576040517f08c379a000000000000000000000000000000000000000000000000000000000815260040161065a9061164b565b60405180910390fd5b61066b610f8b565b600154610678919061169a565b34146106b9576040517f08c379a00000000000000000000000000000000000000000000000000000000081526004016106b09061171a565b60405180910390fd5b6000600660009054906101000a900473ffffffffffffffffffffffffffffffffffffffff1673ffffffffffffffffffffffffffffffffffffffff16346040516107019061176b565b60006040518083038185875af1925050503d806000811461073e576040519150601f19603f3d011682016040523d82523d6000602084013e610743565b606091505b5050905080610787576040517f08c379a000000000000000000000000000000000000000000000000000000000815260040161077e906117cc565b60405180910390fd5b6003600960146101000a81548160ff021916908360038111156107ad576107ac6113ab565b5b021790555050565b600960009054906101000a900473ffffffffffffffffffffffffffffffffffffffff1681565b600160038111156107ef576107ee6113ab565b5b600960149054906101000a900460ff166003811115610811576108106113ab565b5b14610851576040517f08c379a0000000000000000000000000000000000000000000000000000000008152600401610848906115df565b60405180910390fd5b6001543414610895576040517f08c379a000000000000000000000000000000000000000000000000000000000815260040161088c90611838565b60405180910390fd5b33600660006101000a81548173ffffffffffffffffffffffffffffffffffffffff021916908373ffffffffffffffffffffffffffffffffffffffff160217905550565b600860009054906101000a900473ffffffffffffffffffffffffffffffffffffffff1681565b60025481565b600560009054906101000a900473ffffffffffffffffffffffffffffffffffffffff1681565b60008054906101000a900473ffffffffffffffffffffffffffffffffffffffff1681565b60015481565b60016003811115610968576109676113ab565b5b600960149054906101000a900460ff16600381111561098a576109896113ab565b5b146109ca576040517f08c379a00000000000000000000000000000000000000000000000000000000081526004016109c1906115df565b60405180910390fd5b6003546004546109da919061169a565b421015610a1c576040517f08c379a0000000000000000000000000000000000000000000000000000000008152600401610a13906118a4565b60405180910390fd5b600960009054906101000a900473ffffffffffffffffffffffffffffffffffffffff1673ffffffffffffffffffffffffffffffffffffffff166342842e0e30600660009054906101000a900473ffffffffffffffffffffffffffffffffffffffff166007546040518463ffffffff1660e01b8152600401610a9f939291906118c4565b600060405180830381600087803b158015610ab957600080fd5b505af1158015610acd573d6000803e3d6000fd5b505050506002600960146101000a81548160ff02191690836003811115610af757610af66113ab565b5b0217905550565b600660009054906101000a900473ffffffffffffffffffffffffffffffffffffffff1681565b600960149054906101000a900460ff1681565b60016003811115610b4b57610b4a6113ab565b5b600960149054906101000a900460ff166003811115610b6d57610b6c6113ab565b5b14610bad576040517f08c379a0000000000000000000000000000000000000000000000000000000008152600401610ba4906115df565b60405180910390fd5b600560009054906101000a900473ffffffffffffffffffffffffffffffffffffffff1673ffffffffffffffffffffffffffffffffffffffff163373ffffffffffffffffffffffffffffffffffffffff1614610c3d576040517f08c379a0000000000000000000000000000000000000000000000000000000008152600401610c349061196d565b60405180910390fd5b426004819055508060028190555042600481905550600354600454610c62919061169a565b4210610ca3576040517f08c379a0000000000000000000000000000000000000000000000000000000008152600401610c9a906119d9565b60405180910390fd5b6000600560009054906101000a900473ffffffffffffffffffffffffffffffffffffffff1673ffffffffffffffffffffffffffffffffffffffff1634604051610ceb9061176b565b60006040518083038185875af1925050503d8060008114610d28576040519150601f19603f3d011682016040523d82523d6000602084013e610d2d565b606091505b5050905080610d71576040517f08c379a0000000000000000000000000000000000000000000000000000000008152600401610d68906117cc565b60405180910390fd5b6003600960146101000a81548160ff02191690836003811115610d9757610d966113ab565b5b02179055505050565b60006003811115610db457610db36113ab565b5b600960149054906101000a900460ff166003811115610dd657610dd56113ab565b5b14610e16576040517f08c379a0000000000000000000000000000000000000000000000000000000008152600401610e0d90611a45565b60405180910390fd5b600960009054906101000a900473ffffffffffffffffffffffffffffffffffffffff1673ffffffffffffffffffffffffffffffffffffffff166342842e0e600560009054906101000a900473ffffffffffffffffffffffffffffffffffffffff16306007546040518463ffffffff1660e01b8152600401610e99939291906118c4565b600060405180830381600087803b158015610eb357600080fd5b505af1158015610ec7573d6000803e3d6000fd5b505050506001600960146101000a81548160ff02191690836003811115610ef157610ef06113ab565b5b0217905550565b600960009054906101000a900473ffffffffffffffffffffffffffffffffffffffff1673ffffffffffffffffffffffffffffffffffffffff1663095ea7b383836040518363ffffffff1660e01b8152600401610f55929190611a65565b600060405180830381600087803b158015610f6f57600080fd5b505af1158015610f83573d6000803e3d6000fd5b505050505050565b60008060045442610f9c9190611a8e565b905060006301e1338082600254600154610fb69190611ac2565b610fc09190611ac2565b610fca9190611b33565b9050809250505090565b60035481565b6000604051905090565b600080fd5b600080fd5b600073ffffffffffffffffffffffffffffffffffffffff82169050919050565b600061101982610fee565b9050919050565b6110298161100e565b811461103457600080fd5b50565b60008135905061104681611020565b92915050565b6000819050919050565b61105f8161104c565b811461106a57600080fd5b50565b60008135905061107c81611056565b92915050565b600080fd5b600080fd5b6000601f19601f8301169050919050565b7f4e487b7100000000000000000000000000000000000000000000000000000000600052604160045260246000fd5b6110d58261108c565b810181811067ffffffffffffffff821117156110f4576110f361109d565b5b80604052505050565b6000611107610fda565b905061111382826110cc565b919050565b600067ffffffffffffffff8211156111335761113261109d565b5b61113c8261108c565b9050602081019050919050565b82818337600083830152505050565b600061116b61116684611118565b6110fd565b90508281526020810184848401111561118757611186611087565b5b611192848285611149565b509392505050565b600082601f8301126111af576111ae611082565b5b81356111bf848260208601611158565b91505092915050565b600080600080608085870312156111e2576111e1610fe4565b5b60006111f087828801611037565b945050602061120187828801611037565b93505060406112128782880161106d565b925050606085013567ffffffffffffffff81111561123357611232610fe9565b5b61123f8782880161119a565b91505092959194509250565b60007fffffffff0000000000000000000000000000000000000000000000000000000082169050919050565b6112808161124b565b82525050565b600060208201905061129b6000830184611277565b92915050565b6112aa8161104c565b82525050565b60006020820190506112c560008301846112a1565b92915050565b6000819050919050565b60006112f06112eb6112e684610fee565b6112cb565b610fee565b9050919050565b6000611302826112d5565b9050919050565b6000611314826112f7565b9050919050565b61132481611309565b82525050565b600060208201905061133f600083018461131b565b92915050565b6000611350826112f7565b9050919050565b61136081611345565b82525050565b600060208201905061137b6000830184611357565b92915050565b61138a8161100e565b82525050565b60006020820190506113a56000830184611381565b92915050565b7f4e487b7100000000000000000000000000000000000000000000000000000000600052602160045260246000fd5b600481106113eb576113ea6113ab565b5b50565b60008190506113fc826113da565b919050565b600061140c826113ee565b9050919050565b61141c81611401565b82525050565b60006020820190506114376000830184611413565b92915050565b60006020828403121561145357611452610fe4565b5b60006114618482850161106d565b91505092915050565b6000806040838503121561148157611480610fe4565b5b600061148f85828601611037565b92505060206114a08582860161106d565b9150509250929050565b600082825260208201905092915050565b7f4f6e6c79206f776e65722063616e207769746864726177000000000000000000600082015250565b60006114f16017836114aa565b91506114fc826114bb565b602082019050919050565b60006020820190508181036000830152611520816114e4565b9050919050565b7f42616c616e636520697320300000000000000000000000000000000000000000600082015250565b600061155d600c836114aa565b915061156882611527565b602082019050919050565b6000602082019050818103600083015261158c81611550565b9050919050565b7f4c6f616e206973206e6f74206163746976650000000000000000000000000000600082015250565b60006115c96012836114aa565b91506115d482611593565b602082019050919050565b600060208201905081810360008301526115f8816115bc565b9050919050565b7f4f6e6c7920626f72726f7765722063616e2070617920746865206c6f616e0000600082015250565b6000611635601e836114aa565b9150611640826115ff565b602082019050919050565b6000602082019050818103600083015261166481611628565b9050919050565b7f4e487b7100000000000000000000000000000000000000000000000000000000600052601160045260246000fd5b60006116a58261104c565b91506116b08361104c565b92508282019050808211156116c8576116c761166b565b5b92915050565b7f496e636f727265637420616d6f756e7420706169640000000000000000000000600082015250565b60006117046015836114aa565b915061170f826116ce565b602082019050919050565b60006020820190508181036000830152611733816116f7565b9050919050565b600081905092915050565b50565b600061175560008361173a565b915061176082611745565b600082019050919050565b600061177682611748565b9150819050919050565b7f4661696c656420746f2073656e64204574686572000000000000000000000000600082015250565b60006117b66014836114aa565b91506117c182611780565b602082019050919050565b600060208201905081810360008301526117e5816117a9565b9050919050565b7f496e636f7272656374206c6f616e20616d6f756e740000000000000000000000600082015250565b60006118226015836114aa565b915061182d826117ec565b602082019050919050565b6000602082019050818103600083015261185181611815565b9050919050565b7f4c6f616e20686173206e6f742079657420657870697265640000000000000000600082015250565b600061188e6018836114aa565b915061189982611858565b602082019050919050565b600060208201905081810360008301526118bd81611881565b9050919050565b60006060820190506118d96000830186611381565b6118e66020830185611381565b6118f360408301846112a1565b949350505050565b7f4f6e6c7920626f72726f7765722063616e2061636365707420746865206f666660008201527f6572000000000000000000000000000000000000000000000000000000000000602082015250565b60006119576022836114aa565b9150611962826118fb565b604082019050919050565b600060208201905081810360008301526119868161194a565b9050919050565b7f4c6f616e20686173206578706972656400000000000000000000000000000000600082015250565b60006119c36010836114aa565b91506119ce8261198d565b602082019050919050565b600060208201905081810360008301526119f2816119b6565b9050919050565b7f4c6f616e206973206e6f74206f70656e00000000000000000000000000000000600082015250565b6000611a2f6010836114aa565b9150611a3a826119f9565b602082019050919050565b60006020820190508181036000830152611a5e81611a22565b9050919050565b6000604082019050611a7a6000830185611381565b611a8760208301846112a1565b9392505050565b6000611a998261104c565b9150611aa48361104c565b9250828203905081811115611abc57611abb61166b565b5b92915050565b6000611acd8261104c565b9150611ad88361104c565b9250828202611ae68161104c565b91508282048414831517611afd57611afc61166b565b5b5092915050565b7f4e487b7100000000000000000000000000000000000000000000000000000000600052601260045260246000fd5b6000611b3e8261104c565b9150611b498361104c565b925082611b5957611b58611b04565b5b82820490509291505056fea2646970667358221220ec97dd1d5c47327fba1a979cbaa3ac607cfe0b495cbdd094b7efb3700cbdcda164736f6c63430008120033",
  "linkReferences": {},
  "deployedLinkReferences": {}
}